:10000000000F00203D5A0000395A0000395A000004
:1000100000000000000000000000000000000000E0
:10002000000000000000000000000000395A00003D
:100030000000000000000000395A0000395A00009A
:10004000395A0000395A0000395A0000395A000064
:10005000395A0000395A0000611D0000395A000069
:1000600071460000E956000011520000395A0000A4
:1000700071550000395A0000395A0000395A000001
:10008000395A0000395A0000395A0000395A000024
:10009000395A0000395A0000395A0000395A000014
:1000A000395A0000395A0000395A0000395A000004
:1000B000395A0000B9590000395A0000395A000075
:1000C00010B5064C2378002B07D1054B002B02D02E
:1000D000044800E000BF0123237010BD600400202D
:1000E00000000000AC80000008B5084B002B03D0D6
:1000F0000748084900E000BF07480368002B00D10B
:1001000008BD064B002BFBD09847F9E70000000024
:10011000AC800000640400205C04002000000000AB
:10012000164B002B00D1144B9D46402292029A1A86
:10013000924600218B460F461348144A121A06F0C5
:1001400021FC0F4B002B00D098470E4B002B00D00A
:1001500098470020002104000D000D48002802D01F
:100160000C4806F019FD06F0ABFB2000290001F059
:1001700073FC06F095FBC04600000800001000204C
:10018000000000000000000060040020FC080020C7
:10019000996B0000A96B000038B5054D4400285D3F
:1001A0002C1903F032FA607803F02FFA38BDC046FC
:1001B000C86C000070B5051C002003F0E7FF16496D
:1001C000061C4B780A781B0213430A3B012B06D806
:1001D000012003F0F9FF291C03F086FB1AE04C799B
:1001E00008792402092304430020E2B293424041EB
:1001F000181A281A40B203F060FA0521301C03F0E7
:1002000073FB2F2003F001FAE0B203F01FFA432042
:1002100003F0FBF970BDC0464107002008B5034B51
:100220000348197803F02DFA08BDC04641070020A5
:10023000B478000010B503F0D8F9FFF7EFFF03F032
:1002400042FA0820FFF7B6FF03F03DFA2B4BFF24DC
:100250001878FFF7A1FF03F036FA03F0CCF900F0AD
:1002600041FA022180B203F031FB254803F0F8F98E
:1002700005F01AF8002801D0224B1C78E4B2E307FD
:1002800004D51220052102F095FE02E0052003F0BE
:1002900014FA202003F0B9F903F0B6FF022813D1B5
:1002A000044204D01130052102F084FE02E0052052
:1002B00003F003FA630704D502F042FD03F0C8FA25
:1002C0001AE003F000FA17E00F4B5A78197812027F
:1002D0000A430B2A07D1D8799A79000210430621E4
:1002E00003F0FDFA06E0D8789A7800021043062160
:1002F00003F026FB03F0ECF910BDC046E80800202F
:10030000DB6C0000880800204107002008B501F0E0
:10031000E1F801F085FE08BD08B501F0C9F801F06B
:1003200057FE064B00201A7E5B7E1B0213435A1EAB
:100330009341034A137002F0AFFA08BD4107002051
:100340007C04002038B50A4B1D88281C01F06AFF88
:1003500001F050FF041C01F0A5FD002806D1002C7F
:1003600004D102F001FD85426441E4B2201C38BD95
:10037000BC04002038B5FFF7E5FF041C01F046F887
:100380000A4B051C1B78201C002B02D0291C02F0F4
:10039000C1FA0123002806D1291C201C02F0B6FB5B
:1003A00001F070F80223181C38BDC0467C04002000
:1003B00082B00190019B013BFDD102B0704700006B
:1003C00008B5034B5843000BFFF7F2FF08BDC046CA
:1003D000666900007047000008B5034803F0FCFAA6
:1003E00004F08CFB08BDC0460E07002008B5034B87
:1003F0001B689847024B1B68984708BD18000020EF
:100400001C00002010B5041C034B1B689847034BCD
:1004100018786040187010BD14000020800400207F
:1004200010B5064C2378012B07D1054B5B8B002BB5
:1004300003D0FFF7D1FF0223237010BD000000207E
:100440000E07002010B5044C2378012B03D0FFF7D2
:10045000CDFF0123237010BD0000002008B5044B20
:100460001B78012B02D0034B1B68984708BDC04680
:10047000000000201800002008B53B20FFF7C2FF55
:1004800008BD10B5041C2078002803D0FFF7BAFF80
:100490000134F8E710BD1FB5694603F083F86846DC
:1004A000FFF7EFFF05B000BD38B50023051C144C65
:1004B00024202370FFF7A6FF281CFFF7ECFFFFF7AF
:1004C000DBFF104B18780130FFF7E5FFFFF7D4FF93
:1004D000FA216068890006F061F8FFF7DCFF2E2042
:1004E000FFF790FF6068642106F058F80A2106F0D3
:1004F000DBF8081CFFF7CFFFFFF7BEFF38BDC04693
:1005000080040020E808002008B50D20FFF77AFFDE
:100510000A20FFF777FF08BD08B5034B1878FFF7EF
:10052000BAFFFFF7F1FF08BD8004002010B50120DD
:10053000FFF7BAFF0024194BE05C02F055FB0134D1
:10054000FFF7A9FFFFF798FF0E2CF4D10024201C21
:10055000013402F079F9E4B2FFF79DFFFFF78CFF59
:10056000062CF4D102F07CF9FFF795FFFFF784FF2A
:1005700002F07EF9FFF78FFFFFF77EFF00F0B2F881
:10058000FFF789FFFFF778FF00F0E8F8FFF783FF38
:10059000FFF772FFFFF7C0FF10BDC046EC6C000014
:1005A00038B5051C0220FFF77FFF0024201C002D1A
:1005B00002D002F013FB01E002F016FB0134E4B2BA
:1005C000FFF769FFFFF758FF252CEFD1074B18887D
:1005D000FFF761FFFFF750FF04F0BEFAFFF75BFF84
:1005E000FFF74AFFFFF798FF38BDC0460C05002013
:1005F00008B50320FFF758FF00F0D8F9FFF74BFFCD
:10060000FFF73AFF00F0C8F9FFF745FFFFF734FFA7
:10061000FFF782FF08BD000010B5094B5C8BFFF7A8
:1006200085FF012C0ADD0120032C00DC0020C0B274
:10063000FFF7B6FF022C01D0FFF7DAFF10BDC0466E
:100640000E07002010B5094C2378012B0DD002F0C5
:1006500007FF2278064B022A02D1002298602270FE
:100660009A68801A5860FFF7D7FF10BD000000207D
:100670008004002010B502F0CFFA084C002801D108
:10068000A08107E002F0CEFAA389834202D0A081C4
:10069000FFF7D8FFFFF79EFE10BDC0468004002084
:1006A00010B5054C23792068002B03D002F0E7FE3B
:1006B0002368C01A10BDC04690040020FA2108B576
:1006C000024B8900986805F069FF08BD900400207E
:1006D000FA2108B5024B8900D86805F05FFF08BD14
:1006E0009004002070B5012003F06EFD051C04206D
:1006F00003F06AFD061C142002F076FA6323A84278
:1007000013D20023B04210D9801B84B2A81B6421ED
:1007100080B205F043FF81B2201C05F03FFF80B29C
:10072000031C632800D96323DBB2181C70BD0000D2
:1007300038B5FFF7D7FF084C237C83420BD265699D
:100740002074FFF7ADFF2D1AFFF7AAFFA3696061C0
:100750009D4200D9A56138BD9004002008B5FFF77F
:10076000E7FF054B6922197F002900D1053A187C63
:10077000121A9869504308BD900400207047000089
:1007800008B5FFF7AFFF0022034B18745A619A6156
:100790009A60DA6008BDC04690040020C82138B5D0
:1007A0004900002002F0A2FB154CE083012003F079
:1007B0000BFD144BC018144B80B2051C984200D995
:1007C0001D1CADB2281C04F019FA0020291C02F0EF
:1007D0008DFB0E4B984201D8208400E0238402F068
:1007E000B9FA207702F04BFE2060FFF7C9FF002224
:1007F000E31CDA770123237102F034FA38BDC046D6
:1008000090040020B80B000078690000A861000087
:1008100008B5FFF745FF0022014B18601A7108BDAB
:100820009004002008B501F02FFE00280CD100F044
:10083000DFFD002808D101F035FB002809D0054A6A
:1008400093687033936004E0024AD3687033D360D6
:10085000F1E708BD9004002070B5384C2379002BD7
:1008600001D1022069E0052002F0BEF98022344E59
:100870009200F3889B18334A984218DC002002F05B
:10088000BBF9238C834206D9E38B834205D900F060
:10089000A9FD002801D02C4A09E0E31CDB7F012BD5
:1008A000F9D0257F02F056FA284A854203D0284B1A
:1008B00000201A6041E0274B1D88FA239B00ED18A9
:1008C00002F05EFAADB2244A8542F0D3062002F06F
:1008D0008BF9F38A214A8342E9D8192002F084F97E
:1008E000051C03F09FFC1E4B984202D01D4AA842F3
:1008F0000FD91D4DEE7CAB7C36021E431B4B9E4236
:100900000BD8E0681A4905F049FE80B2864204D847
:10091000184A0F4B01201A600FE06B7D2A7D1B02E5
:1009200013439ED0072002F05FF9EB7DAA7D1B02E6
:100930001343834295D2104AB9E770BD900400205A
:100940000E070020DA730000EA730000CB7300008A
:10095000EC080020BE040020C0730000B17300004A
:10096000E8FD0000A173000041070020E70300003C
:1009700060EA00009673000086730000054B82B0A9
:100980006A460732934203D8BE221A700133F7E752
:1009900002B070470009002082B0034801AB181A6A
:1009A00080B202B07047C04600090020002382B028
:1009B0006946064A07319A1898B28A4203D81278D3
:1009C0000133BE2AF4D002B07047C04600090020AF
:1009D00038B50025094C2560BFF34F8F0120FFF784
:1009E000EFFC01202060BFF34F8FFFF7E9FC25608B
:1009F000BFF34F8F6420FFF7E3FC38BD784200500F
:100A000008B5011C01230D4A19401160BFF34F8F37
:100A10000B4942081A400A60BFF34F8F0949820808
:100A20001A400A60BFF34F8F074AC00803401360A3
:100A3000BFF34F8FFFF7CCFF08BDC0467442005094
:100A4000704200506C420050684200504B1E994169
:100A5000064B10B5041C1960BFF34F8F0009FFF758
:100A6000CFFF201CFFF7CCFF10BDC0467C420050DA
:100A700008B50021FFF7EAFF08BD08B50120FFF720
:100A8000F7FFFA20C000FFF79BFC08BDF0B585B06A
:100A90006C460B4B6A46E0CBE0C41B682360094BF5
:100AA0001B78994201D3591EC9B289005358C01806
:100AB00080235B421843C0B2FFF7DAFF05B0F0BDF8
:100AC000FC6C0000B404002008B50423044A5078EC
:100AD000034353700C231843FFF7CAFF08BDC046F9
:100AE000B404002038B507230C1C1840C00039336B
:100AF0001843251CFFF7BCFF08352078012101347D
:100B0000FFF7A4FFAC42F8D138BD000010B52A4C65
:100B1000012903D90820E3780343E37000232170FF
:100B200023719A4205D0012903D10422E3781343AB
:100B3000E3702248032104F081FB2148032104F0E3
:100B40007DFB2048032104F079FB03211E4804F0BB
:100B500075FB1E48FFF734FC00231D4A1360BFF3EA
:100B60004F8F1C4A1360BFF34F8F0320FFF748FFDE
:100B70001948FFF725FC0320FFF742FF1648FFF74F
:100B80001FFC0320FFF73CFF9620FFF719FC022013
:100B9000FFF736FF2020E3781843FFF769FF0423AF
:100BA0006370FFF791FFFFF768FF02230620A37031
:100BB000FFF75EFF10BDC046B40400207442005031
:100BC000704200506C4200506842005050C3000018
:100BD0007C420050784200509411000008B508484B
:100BE000032104F02BFB0748032104F027FB00221C
:100BF000054B10200121DA70FFF788FF08BDC046C1
:100C00007C42005078420050B404002008B5012115
:100C1000FFF71CFF012008BD10B50C1C03F0D4FA2F
:100C20000B4A0C4B1080002C07D0D9799879090217
:100C300001435180997BDB7B06E0597A187A0902DF
:100C400001435180197C5B7C1B020B43938010BDD8
:100C5000BC0400204107002008B5024B986804F04E
:100C60007EF808BDBC04002008B5034B986804302A
:100C700004F075F808BDC046BC04002008B5FFF7B5
:100C8000F3FFFFF7C5FD02F0BCFC08BD10B502F094
:100C9000FEFB041C02F0FBFB001B80B2B42801D950
:100CA00002F0DCF800F0F2FE0028F3D005F04EFA76
:100CB00010BD08B5FFF7E2FF01F00EFD052005F0BD
:100CC00053FAFFF7E3FF08BD08B5FFF7D7FF02F0BF
:100CD000C5F801F009FD062005F046FAFFF7D6FF3A
:100CE00008BD000007B5054B0422996801A808312A
:100CF00005F00AFE019B98470EBDC046BC040020CB
:100D000038B5051E03D1FFF7DFFF2C1C0AE00124D4
:100D1000A04207D1044B1C7B002C02D1FFF7C9FF76
:100D200000E00024201C38BDBC040020F8B50026DB
:100D3000194F02253E700124FFF78EFF00F0A6FE3A
:100D4000387001F0FBFC002C0CD0FFF785FD051C72
:100D5000FFF7D6FF041E05D001F064FF86420CD1D8
:100D6000002C06D10D4B1C7B002C02D0002D0ED187
:100D70002C1C3B78012BE1D109E001F053FF061C4C
:100D8000FFF7B0FF051CFFF7BBFF041CE8E7FFF708
:100D90006BFF281CF8BDC0465B050020BC0400208A
:100DA00008B501F015F901F0D1FB012001F074FD47
:100DB00008BD08B501F0DCFB01F032F908BD000008
:100DC00038B50A4B1D88281C01F02CFA01F0FAF9FD
:100DD000041C01F067F8002806D1002C04D101F0B2
:100DE000C3FFA8426441E4B2201C38BDBC0400200B
:100DF00038B5FFF7E5FF051C01F054FB041C281C67
:100E0000211C01F087FD0123002806D1211C281C8C
:100E100001F07CFE01F076FB0223181C38BD0000B7
:100E200008B5064AD07E937E0002184304F0CAFF3C
:100E3000034A044B1A60FFF779FF08BD4107002001
:100E400090800000C4040020012370B50E1C0F4DDB
:100E50000F4C2B7020702378B34201D100222A70EE
:100E60000020DB0700D4033005F0FAF801280BD18D
:100E70002B78002B08D023780133237005F0EAF893
:100E8000FFF7CEFF0128E6D070BDC046C8040020A1
:100E9000CC04002070B588B06946134B6A4670CB0D
:100EA00070C170CB70C130CB30C11049104B88423B
:100EB00002D15B695B050CE00E49884202D15B6997
:100EC0005B0406E00C495B69884201D15B0300E0EA
:100ED0005B025B0F022B02D1084B186801E09B00FC
:100EE000D05808B070BDC046186D00000000014029
:100EF00000020050200001400000114008000020C6
:100F0000F8B5061C0F1C141CFFF7C4FF051C430892
:100F10009C4208D8211C05F041FB040E05D0611C41
:100F200005F03CFB01E0002402202743611C3760F0
:100F300041437060281C05F031FBF8BD08B500F096
:100F400019FF08BD38B500F027FF01F00DFF041CA4
:100F5000022003F039F9A04203D2254B188801F092
:100F6000D1FA244B244A1B88A3423DD301F066FEEC
:100F7000012801D802203AE0204C637D227D1B022B
:100F80001343251C002B0DD01D2001F02DFE631DE9
:100F90000634DA7FE37F00B21B0213431BB2184A08
:100FA000984221DC01F04AFE2A1DEB1CD27FDB7F38
:100FB00012021A435200C417D30F90425C41E4B2AC
:100FC000201C01F041FE002CD4D0EB7FAA7F1B0235
:100FD0001343CFD01B2001F007FE041C03F040F99F
:100FE00024B28442C6DA074A0120074B1A6038BD92
:100FF000BE040020BC040020E67000004107002071
:10100000DC700000E2700000EC08002010B5FA244B
:10101000A400604305F0C2FA6421604305F0BEFA03
:10102000024B984200D9181C80B210BDFFFF00008F
:10103000FEE7000013B5041C03F048F90122031C6D
:1010400000920248211C03F0DFFE13BD450700207B
:1010500038B51B4D6B782A781B02134325D003F05B
:10106000D3F8012383409CB26B7D2A7D1B0213437E
:1010700001D1802305E003F0C7F88223002800D1C6
:101080008A23DB01E418A4B203F0BEF8002804D1DF
:10109000EB7FAA7F1B0213430AD10A4B1B8C002B48
:1010A0000BD0094BE418A4B207E08024E40104E06B
:1010B00080239B00E418A4B2EFE7201C38BDC04693
:1010C000410700200E0700200080FFFF08B50F4BEE
:1010D000984202D103F014FA10E00D4B984202D16D
:1010E00003F0EAF90AE00B4B984202D103F0C0F991
:1010F00004E0094B984201D103F0CCF903F0FCF86D
:10110000FFF7A6FF02F0C6FD08BDC046410700205C
:1011100043070020470700204907002010B5134867
:101120008AB0134902F0C4FDFFF792FF02F0B2FD4E
:10113000002001F025F9002815DB0E4C2822211C87
:10114000684605F0E1FB01F059F9002805D1201CA3
:101150006946282205F0D8FBE6E7032005F004F8ED
:1011600003F0CAF8E0E70AB010BDC046446D0000C5
:10117000CD10000041070020F0B59BB00293574B03
:1011800005AE9C460092331C6246041C0F1C23CA09
:1011900023C36146126810311A6009A8442205F081
:1011A000B3FB4F4A4F4B0220944208D1C02189051E
:1011B0000A1C384082405B691C301A4006E030212E
:1011C0000A1C38408240DB6904301A40131CC340BB
:1011D000022B0ED100F0A6F9434B1B680193009936
:1011E000019805F0DBF9FF23039005260093012504
:1011F00002E09B00F358F1E70398291C05F0CEF9B3
:1012000080235B04984215D8384BC3181B0CDBB203
:101210001A1C022B00D20222D3B2191C009305F033
:10122000BDF980235B02984204D8061E012E07D028
:1012300086B205E06D00013EEDB2002EDCD12B4EF2
:10124000009901986943714305F0A8F9AD0009AB15
:10125000EB587D089C46009B0190013BE800DBB207
:101260008340FF220093131C834060460240072006
:101270002168013E9943009BB6B20B43B9008840F8
:101280008A4023606368F90083431A4362608022C6
:10129000D205AA40A3680C259343A36008238B4082
:1012A000A2687D431343A360231C029A10335D1987
:1012B000002A09D0131C701C43436421181C05F03C
:1012C0006DF90138286001E0029B2B600C237B4301
:1012D00001980C341C1926601BB0F0BD247400006A
:1012E000000004400002005008000020FFFF000042
:1012F00001230B408A0702D58022520013434A077C
:1013000002D58022520213430A0702D580225204DA
:1013100013438268134383607047C36F1943C167E7
:10132000704701238B4043647047000008B5034BAE
:101330001B68195C024802F0A4F908BDD004002023
:101340007874000070B5051C03F068F802F05CFFCB
:101350001E4A517813781E4A09021943131C283378
:1013600000290DD0131C2933032809D00733022884
:1013700006D00933002803D00533052800D00233F6
:101380000020144C23601A5C411CC8B2092AFAD10F
:1013900000F066FF104B114A114E1A6023790020AD
:1013A000337000F0EDFF3378237100280CDB2268E6
:1013B000D05C092805D1FFF7B1FE281C03F046F8E0
:1013C000C4E704F07DFEC1E770BDC04641070020C0
:1013D00078740000D00400204C0500202D1300007C
:1013E00044050020014B18787047C046D8040020FF
:1013F000024B5888431E9841C0B27047D804002061
:10140000014B58887047C046D8040020014B98888B
:101410007047C046D804002037B56B460E4CDD1D22
:10142000E2880E4B281CD11889B203F0A2FC0020E0
:101430002B7883420ED101F09DFC011E00D10131B9
:10144000FA204000FFF7E2FD228A031C904200D9F7
:10145000131C98B23EBDC0460E07002000FEFFFFE1
:10146000064A08B5031C904200D9131C044A98B2DE
:10147000538003F06BFC01F0D1FC08BDF87F000045
:10148000D804002010B5041CFFF7C6FF031CA042BF
:1014900000D9231C054A99B29088884205D01020B3
:1014A000938001F023FDFFF7DBFF10BDD80400207F
:1014B00038B5074C2578002D08D1281CFFF7D0FF40
:1014C0000120A58003F032FC0123237038BDC04603
:1014D000D804002038B5074C2378002B08D000250D
:1014E0000020FFF7BDFF281CA58003F01FFC25701E
:1014F00038BDC046D8040020012208B5024B1A703E
:10150000FFF7E8FF08BDC046D804002008B505F085
:1015100031F808BD08B5024800F052FF08BDC046CA
:10152000C07400000723F7B51D4D1E4E2C6901AF96
:101530000422381C311C1C4005F0E6F9A0222B6A5D
:10154000D2020020134215D11A0301D4164800E03C
:1015500016489A030ED4DA05D20D023280085043A1
:101560001A04920F9B04B95CDB0E0233594305F059
:1015700015F880000E4F3860022C02D0A4003619F6
:1015800070680F23A9691940013105F007F8094B6C
:1015900078600949C01805F001F8B860F7BDC04689
:1015A00000020050E0740000001BB70000805101F1
:1015B0000400002020A1070040420F0070470000F7
:1015C000044B01201B78042B03D0981E4342584142
:1015D000404270475B05002010B5FFF7F1FF184C43
:1015E000011E07D0174803F04FFC0022164B1A705B
:1015F0000A23237001F0F9FF2378002B09D0013B67
:101600002370104B0821188802F069F902F05BF88A
:1016100001E004F03DFA0721172001F0CBFC02F0B5
:1016200057F801F0E8FF0821182001F0C3FC02F090
:101630004AF80721142001F0BDFC02F049F810BD62
:10164000DE040020BE0400205B05002013B5064B1D
:1016500001AC021C1978201C01F00CFB60880721EA
:1016600002F03DF913BDC046E004002008B501F0CA
:1016700087FB072102F033F9034B187801F0AEFA2B
:10168000062102F023F908BDE004002008B5054B4F
:101690001B78022B02D100F01FFF01E0FFF7E0FEF4
:1016A00008BDC046E00400200023F0B585B00093DB
:1016B000022000F0D5FD424A424B00201A606A46E3
:1016C000414B12781A7000F05BFE0090002874DB2A
:1016D00004F0E8FC012001F023FD002003F026F9CE
:1016E000002867D06B46394D1E78697802A8321CF5
:1016F00003AF01F0BFFA2978381C321C01F0BAFAA6
:101700003348344902F0D4FA02AB5B882C1C6B805E
:101710000023019302AB1B880120A38000F030FE60
:10172000002837DB2CD12378022B05D100F00EFFE7
:10173000294803F063FA01E0FFF7BAFEA088FFF73B
:10174000A5FF00F05BFE00280ED001F077FB638858
:1017500002AA5380A28802A920787B800A8001F027
:101760003DFA0123388001930020FFF78FFF237893
:10177000022B02D100F0FCFECCE7FFF7ABFEC9E77D
:101780000228C7D100F03AFE0028C3D102AB5B8823
:101790006380BFE7019B002B0CD06878311C02AA44
:1017A00001F08CFA2878311C3A1C01F087FA0120EC
:1017B00004F01AFE01F052FB7AE705B0F0BDC04616
:1017C0004D1600004C05002044050020E0040020D8
:1017D00004750000DD1700007869000010B5154C95
:1017E0002378A288022B06D1134B9A4201D9134BBE
:1017F000A380134B05E0134B9A4200D9A380FA2330
:101800009B0062889A4200D96380231D984202D1CE
:10181000A088FFF73BFF122001F09CFB002808D1B5
:1018200009480A4900F035FF2378032B01D1FFF75F
:1018300051FE10BDE004002060EA000060EAFFFFF6
:1018400088130000F87F0000D4700000C070000012
:101850000F2208B5034B5A700D3A1A70FFF724FF98
:1018600008BDC046E0040020102208B5034B5A70A2
:101870000D3A1A70FFF718FF08BDC046E0040020BB
:10188000FFB58023C405400A40029B00C518031C15
:10189000FFB002AFE40D01923C191A683E1AF250F3
:1018A0000433AB42F9D101230027019A974209DAA8
:1018B000002B05D0CA5DE35D9B1A5A425A41D3B250
:1018C0000137F2E7002B2AD1019A93420EDACF5C5E
:1018D000E7540133F8E71969124A0029FBD114686B
:1018E00040310C4211D013680B43136022220D4B80
:1018F000DA60213A58601A61BFF36F8FEBE71A691B
:10190000002AFCD10430A84209D021213258D960E4
:1019100058609A6001221A61BFF36F8FEFE77FB0C2
:10192000FFBDC04600C00050F7B5061C0F1C141CBC
:1019300072B61A4B1A78019301321A70184B5A6812
:10194000012A06D059225A60433A5A6072325A60CC
:10195000F4E704F0F3FB002C11DD8022F305DB0D2E
:1019600019199200251C914200DDD51A301C391C32
:101970002A1CFFF785FF76197F19641BEBE704F03B
:10198000D5FB0023064A5360019B019A1B78013B5B
:10199000DBB21370002B00D162B6F7BDCC0800207B
:1019A000FC000050074A030E9B1801220002000AA7
:1019B00082401968101C0A1C02431A601A6882438C
:1019C0001A6070470800005008B5002803D1044889
:1019D00001F046FE03E00138C0B202F007FE08BD88
:1019E0000C73000010B50024152000F039FC0A4BE0
:1019F0000A4A00201A600A4B1C7000F0C1FC002447
:101A0000A042F1DB041E02D1FFF784FDECE70138B0
:101A1000C0B2FFF797FCE7E74C050020C9190000AA
:101A20004405002008B502F0F3FE03F0D1FD02F0FA
:101A30007FFE02F027FE00F0ADFDFFF75DFD01F037
:101A40006BFB03F06FF8FEF799FF01F0F9FF00F070
:101A500012FE00F0E1FE08BD08B5FFF7E3FF04F059
:101A60007DFDFFF7BFFF002008BD0000014B587847
:101A70007047C046E6040020024B034A1B78D05C46
:101A80007047C046E604002064750000F7B50026E4
:101A90001E4C1F4B2278991D8F5C0193072001F08B
:101AA00007FD02F01FFE6278051C031CA078AA4205
:101AB0000DD0002809D165702070E070002D01D193
:101AC000002521E004F066FB1EE0013800E0013053
:101AD000A070A278032A03D903220136A270F6B2BD
:101AE000BE42DBD92278042A0ED8002BE8D0019917
:101AF000E3780C310133895CDBB2E3708B4203D3B2
:101B0000002301322270E370281CFEBDE604002091
:101B10006475000010B5174C2A2123686268D31839
:101B20006360A368E268D318E36023696269D3182D
:101B30006361606804F032FD0F4B2A211860E06891
:101B400004F02CFD0D4B2A211860606904F026FD7D
:101B50000B4B2A211860606804F0A6FD6160E06804
:101B60002A2104F0A1FDE16060692A2104F09CFDB6
:101B7000616110BDEC040020100004401C00044012
:101B80002800044070B5324D324C281C02F0EAF8AF
:101B9000201C02F0E7F88021281C8905002202F0B1
:101BA000B1F8802100220906201C02F0ABF82A4877
:101BB000FFF7F8FEFA252948FFF7F4FE0021284C2C
:101BC000ED012A1C0B1C201CFFF7D6FA2A1C201C36
:101BD00001210023FFF7D0FA2A1C0023201C022138
:101BE000FFF7CAFA201C0121FFF797FB201C0221F6
:101BF000FFF793FB201C0421FFF78FFB01214023FB
:101C0000C120184A2164800013601558164B2B40E0
:101C10008025ED032B431350144A154B106898612F
:101C2000144805689D61144D2E689E61C3239B0076
:101C30002B6003601360201CFFF75AFB201C02215D
:101C4000FFF756FB201C0421FFF752FB70BDC04676
:101C50001400C0571500E0571400000415000004DC
:101C60000000044000E100E0FFFF00FF240004400A
:101C7000EC040020180004400C00044038B5051C9A
:101C80000C1C4420FEF7BEFB01F0EAFBFEF703FC50
:101C90003A20FEF7B7FB1C48FEF7F3FB281CFEF7C3
:101CA000FAFB1A48FEF7EDFB201CFEF7F4FBFEF7EB
:101CB0002BFC142D07D1A0228021154BD2059C604E
:101CC000936B890008E0132D09D1A0228021104BCD
:101CD000D2051C60936B49000B43936313E0152DF1
:101CE00007D1A02280210A4BD2051C60936BC9004A
:101CF000F2E7302D07D1A0220421054BD2051C614B
:101D0000136C0B43136438BD7675000082750000B8
:101D1000EC040020142804D1A022D205916B0D4BB5
:101D200005E0132806D1A022D205916B0A4B0B4087
:101D300093630EE0152804D1A022D205916B074BC6
:101D4000F5E7302805D1A0220421D205136C8B437E
:101D500013647047FFFDFFFFFFFEFFFFFFFBFFFF68
:101D600008B5FFF7D7FE02480021FFF7DAFA08BDF1
:101D70000000044008B500F0E9FB012000F08CFDF4
:101D8000024B188800F0BEFB08BDC046C00400200E
:101D900008B500F0EDFB08BD08B500F0F7FF00281E
:101DA00003D000F07FFB00F005FE08BD08B5FFF78B
:101DB000F3FF00F0D9FF074B1B88834204D2064A89
:101DC000064B00201A6004E0054B188800F09AFBCF
:101DD000022008BDBC040020E6700000EC080020D2
:101DE000BE04002008B5FEF7E4FFFEF78FFA00F00E
:101DF00017F908BD114A38B51378151C002B04D00B
:101E0000012B08D1FEF7B6FA01E0FEF7F1FF041E40
:101E1000012C10D107E000F0B5F9041E022C0AD005
:101E2000FFF7E0FF07E0064B1B78002B03D00134DF
:101E30002C7000F0CDF8201C38BDC04608050020ED
:101E4000C904002038B500F0C3F803200121FEF7D3
:101E5000E3FE114B1D8800F073FF041E05D100F056
:101E600083FF85426441E1B205E0281C00F0DAF905
:101E700000F0C0F9011C094C002903D0FEF790FFC7
:101E8000002307E00320FEF7C7FEFEF745FA012313
:101E9000034A1370237038BDBC04002008050020DD
:101EA0007C04002038B5094D01202C88002C0CD171
:101EB00000F0B2FE002808D000F0B4FE6B88C01A13
:101EC000022380B283426441E0B238BD0C05002099
:101ED00008B51F30C0B200F087FE08BDF8B5002479
:101EE000FF25094E094BE7B21B882341DB0706D5C6
:101EF000381CFFF7EDFF864201D93D1C061C01345A
:101F0000062CEFD1E8B2F8BDFFFF00009C060020D0
:101F100070B50B4C2388002B02D1FFF7D9FF0EE0E0
:101F20002379A61D4500002B08D0FFF7D1FF1234FE
:101F3000735B625B9B1AC01880B200E0705B70BD7F
:101F40000C05002070B500252C1C124E124BE8B277
:101F50001B882B41DB070BD5FFF7DAFF83B2021C8E
:101F6000A34200D2221C94B2B34200D9301C86B2E4
:101F70000135062DEAD1094BA41B5A1C0233DB7F25
:101F8000D27F1B02134301209C4200DC0020C0B220
:101F900070BDC046FFFF00009C06002041070020E6
:101FA00038B50A4C051C2388002B04D0002802D128
:101FB00000F038FE6080258000F024FFA37F002B16
:101FC00002D1E8B202F0F2FB38BDC0460C05002099
:101FD00038B5012002F0AAFB0025E8B2FFF778FF30
:101FE000094C6B00221C123298520135A21D9852E6
:101FF000062DF2D10025281C2580A577FFF7D0FFFC
:10200000FF236580E37738BD0C05002008B500206C
:10201000FFF7C6FF0122014B9A7708BD0C0500208F
:1020200008B5FFF7F3FF002002F080FB08BD0000B9
:102030000020F8B50E4BDB7F5AB2824217DBD8B2D4
:10204000FFF766FF0024071C0126251C094B1B888F
:10205000334205D0201CFFF75BFFB84200D935435F
:1020600001347600E4B2B6B2062CEFD1281CF8BDDC
:102070000C0500209C06002038B5051C0024094BE7
:102080001B882341DB0704D40134062CF7D101203F
:1020900007E0201C1F30C0B200F0DCFDA842F3D2E4
:1020A000002038BD9C060020F7B50620FFF7E4FFAE
:1020B000002841D000F06AFE00283DD01F4CE37F8D
:1020C0007F2B02D9FFF70AFFE077E07FFFF700FFE1
:1020D000002501261A4B01901A7B5B7B1B021343E0
:1020E0000093184B01271B88E8B22B413B4210D0CC
:1020F000FFF7EEFE009B98420FD30023019A824225
:102100005B415B42A21D1E406B009852221C1232A2
:1021100098520135062DE4D100E03E1C00232371C6
:1021200001F0B5F92084002E02D0FFF76FFF03E025
:10213000FFF77EFFFFF734FFF7BDC0460C05002018
:10214000410700209C06002038B5084D2C79002C52
:102150000BD101232B71E0B2FFF7BAFE2B1C6200FA
:1021600012330134D052062CF5D138BD0C050020B5
:10217000034B10B51C8C01F08AF9001B80B210BD16
:102180000C0500200E4B10B51A881C1C002A02D129
:10219000FFF78AFF08E0FFF7D7FFFFF7E9FF0F28F7
:1021A00002D90020FFF7FCFEFFF77CFE031C022093
:1021B000002B03D1A07F43425841013010BDC046DF
:1021C0000C05002070B5061C0025094B01241B8856
:1021D000E8B22B41234204D10135062DF5D1002070
:1021E00004E0FFF795FEB042F6D3201C70BDC04658
:1021F0009C06002070B5061C0025094B01241B8895
:10220000E8B22B41234204D10135062DF5D100203F
:1022100004E0FFF77DFEB042F6D8201C70BDC0463A
:102220009C06002010B5041C00F08AFD011C002053
:10223000814203D0201C04F041FA80B210BD00009E
:1022400007B5064BC00019680422091801A804F05C
:102250005BFB019801F004FA07BDC0464005002071
:102260000022044B1A715A7101329871DA711A7294
:102270007047C0464005002013B50024074BE1001D
:102280001B6801A85918042204F03EFB019B002B97
:1022900002D00134E4B2F1E7201C16BD4005002055
:1022A000024A1379013313717047C046400500207C
:1022B000034A1379002B01D0013B13717047C046CC
:1022C00040050020094B9A791979914201D3013ACE
:1022D0001A711A795979914200D95A715979013193
:1022E000914201DA013A5A717047C0464005002018
:1022F00038B5FFF7E7FF104D6C7969794B1CA342A5
:1023000016DB611A0020C9B201F06BF92B793E206F
:10231000A34200D01E3801F078F9AB79A34202D96C
:10232000201CEB689847013401F0D2F9E4B2E4E7ED
:102330000023EB7138BDC0464005002038B5FFF7DB
:10234000A5FB041C01F02EFB0C4D002803D001233B
:102350007F24EB710FE0022C04D0042C06D1FFF790
:102360009FFF01E0FFF7A4FF0123EB71EB79002B46
:1023700001D0FFF7BDFF201C38BDC046400500203E
:1023800038B50123051C0D4CE371FFF7D7FF00287A
:1023900000D12072237A002B05D1082803D1013304
:1023A0002372207908E0002D01D00122E27101287A
:1023B000EBD1002BE9D1FE3040B238BD4005002002
:1023C00070B5051C00240B4E3560FFF755FFFFF775
:1023D00047FF094B00203471F360FFF7D1FF041E63
:1023E00006DBC3003068C018043002F0B8FCEAE72E
:1023F00040B270BD4005002041220000F8B51C4CE1
:102400001C4E23791C4D337000232B700133E37174
:10241000FFF73CFB0227831EBB43DBB2011C002BF2
:1024200008D123692079984723792F7033700123CD
:10243000E37103E0012810D008280ED002F042FF1B
:10244000002801D00123E371E379002B01D0FFF7CD
:102450004FFF2B7801332B70DAE70839FF23081C74
:102460003370FE3B2372E37143424341D8B2F8BD5F
:10247000400500208808002089080020014B1878BA
:102480007047C04654050020024B5888431E9841AF
:10249000C0B2704754050020014B58887047C046B1
:1024A00054050020014B98887047C0465405002011
:1024B00010B500F05FFC011E00D10131054C608AAF
:1024C000FEF7A4FDA289031C904200D9131C98B208
:1024D00010BDC0460E070020074A08B5031C9042F5
:1024E00001D9064B1B88064A98B2538002F0A2FB22
:1024F00000F094FC08BDC04660EA0000B075000022
:102500005405002010B5041CFFF7D2FF011CA042A7
:1025100000D9211C0C4A89B29388994205D2581AD5
:102520008C2808DD191C8C3904E0C81A8C2802DDBF
:10253000191C8C3189B28B4205D00F20918000F09C
:10254000D5FCFFF7C9FF10BD5405002010B5074C9E
:102550002078002808D16080A080FFF7BDFF01200F
:1025600002F074FB0123237010BDC0465405002007
:1025700038B5074C2378002B09D000250020FFF741
:10258000ABFF281C6580A58002F060FB257038BD7C
:1025900054050020002010B5044C6080A080FFF797
:1025A0009BFF01232370FFF7E3FF10BD54050020BC
:1025B0000C4B10B51C780C4B033C604244411B781B
:1025C000A407002B02D080239B05E41801F01CFE19
:1025D000064B1A7801239340E41880239B00834024
:1025E000E01810BDF0080020AC040020E80800202E
:1025F00038B5041C0134FFF7DBFFE3B200240C22E2
:10260000624309498A18116895685268024201D0EC
:10261000054205D00134E4B2002BF0D1081C38BDCE
:10262000013BDBB2F6E7C046B475000008B502F026
:102630008BFF054A137801331370044B1878FFF7AA
:10264000D7FF804708BDC046890800205A050020F2
:1026500008B500230221044A1370044A1170044A89
:10266000137002F063FF08BD88080020890800206D
:102670005A050020704708B501F067F908BD10B58C
:10268000041C00F0BEFF00F0B0FF201C00F0E8FFCB
:1026900010BD10B50C1CFFF7F2FF00F0ACFF201CC2
:1026A00000F0DEFF10BD000010B5041C00F09DFF1F
:1026B000201C00F0D5FFFDF7F3FF072101F0DEF845
:1026C00000F099FF034B186800F0CAFF01F000F812
:1026D00010BDC046EC08002008B50248FFF7E4FF33
:1026E00008BDC0468C76000008B50248FFF7DCFF45
:1026F00008BDC0469676000008B50248FFF7BFFF48
:1027000008BDC046A176000010B500240F20001BB4
:102710000121C0B200F065FFFF2000F076FF201C11
:10272000002100F05EFF0134FF2000F06EFFE4B2F4
:102730000A2000F0BDFE102CE8D110BD10B501F04C
:1027400031F9002801D1FFF771FF0F4C6378042B9A
:1027500006D120780130C0B2FFF74AFF00280BD124
:102760006378022B0ED12378002B0BD0FFF7CCFF20
:102770002378013B237005E0FFF7C6FF2378013380
:102780002370EDE710BDC0465A05002010B5041CAB
:1027900000F037FF00F029FF074800F061FFA0B20A
:1027A00000F054FF00F027FF044800F059FF02F04A
:1027B00073FB0828FBD110BDBF760000CD7600006A
:1027C00008B50248FFF75BFF08BDC046DD76000094
:1027D00010B50C1E06D00648FFF751FFA0B200F05E
:1027E00035FF04E00348FFF74AFF02F055FB10BD38
:1027F000EE76000003770000031C10B50C1C0548A2
:10280000191CFFF746FFA0B2032101F05FF802F0A8
:1028100043FB10BD1477000008B50348FFF72FFFF6
:10282000024800F039FE08BD21770000B80B000017
:10283000034B00201B78012B01D1024B18887047F5
:102840005C050020C004002008B50C235843034B4E
:1028500018180A3002F09AFD08BDC0465C05002039
:1028600008B50248523002F091FD08BD5C05002019
:1028700013B5122000F0B8F901AC2080142000F04C
:10288000B3F92388181A2080172000F0ADF9608072
:10289000201C02F07BFD16BD0123F0B5194C85B05C
:1028A000061C237000F060FA011C201C164D174F07
:1028B0002A883B884A30009602F079FD2888FFF785
:1028C000B1FC00250390124BE8B21B882B41DB07BB
:1028D0000BD5FFF71DFB011C0C206843A31C181827
:1028E000039A3B88009602F062FD0135062DEAD17D
:1028F0000023221C6370563258341370238005B0B5
:10290000F0BDC0465C050020BC040020C0040020CF
:102910009C060020224B70B51B78051C0E1C214C18
:10292000002B27D0002806D06378002B03D1FFF7B7
:102930006DFB012363706378002B01D0052B19D147
:10294000194B1A88131C9F2A00D8A0239BB2B342AC
:1029500002D20022154B1A70FFF714FC031C2070E2
:102960000020012B1BD1FFF7EDFA002802D0FF2237
:102970000F4B1A70FFF75CFF86420DD8002D0BD06D
:102980006378052B08D156342078431C2370092323
:1029900083428041404202E000205634207070BDE6
:1029A000C90400205C050020C00400202A05002086
:1029B0002B05002070B5061C00F0D6F90D4D011C4A
:1029C000281C321C4A3002F065FD00240A4BE0B29C
:1029D0001B882341DB0709D5FFF79AFA011C0C205D
:1029E0006043AB1C1818321C02F054FD0134062C55
:1029F000ECD170BD5C0500209C060020F7B5144C9E
:102A0000144D201C29884A3002F0F2FC061C28884C
:102A1000FFF708FC0025071C01940F4B1B882B4176
:102A2000DB070FD50C246C43019B391C02331C19A6
:102A3000201C02F0DDFC864204D3201C391C02F06D
:102A4000D7FC061C0135062DE7D1301CFEBDC04663
:102A50005C050020BC0400209C06002038B5174B04
:102A60000C1C1B88051C984200D91D1CFFF7E0FEBA
:102A7000AAB281B2031C914200D22B1C9BB2211E30
:102A8000994219D00E4A5178151C05290ED1A3423E
:102A90000CD383420AD90B490888211CA0420BD3CE
:102AA0005A321088084A1288904205D02A1C0649DA
:102AB0005A3209881180191C081C38BDBE04002038
:102AC0005C050020C00400200E05002070B5061C27
:102AD00000F04AF90B4D00242B1C4A3318805E800D
:102AE000094BE0B21B882341DB0707D5FFF710FA3B
:102AF0000C236343AA1C9852D3185E800134062C21
:102B0000EED170BD5C0500209C060020F8B5061CC7
:102B10000D1C00F03BF9254C002806D1002E41D0B9
:102B2000231C58331B88002B3CD0FFF7BBF900282F
:102B300038D1281CFFF73EFF281CFFF7C7FFFFF71F
:102B40005DFF231C5833A84201D240194010271CB6
:102B5000188058373888291CFFF780FF3880607844
:102B600004281DD803F010FD030912141A00002ECA
:102B700018D0FFF74BFA012313E0002E12D00323E5
:102B80006370231C002258331A800BE0002308E0F6
:102B9000231C002258331A80042302E0002E01D0A7
:102BA0000523637058342088F8BDC0465C050020BA
:102BB00072B6034B18780130C0B218707047C04627
:102BC000CC080020044A1378013BDBB21370002BC1
:102BD00000D162B67047C046CC080020014B4000CF
:102BE000185A7047B8050020024B40002233185A8B
:102BF0007047C046B805002010B5041CFFF7D8FF89
:102C0000044B64006C33E45AA4B2FFF7DBFF201CD2
:102C100010BDC046B8050020014B987BC0B270477C
:102C200038060020014B188A7047C046380600203D
:102C3000014B588A7047C04638060020014B988ADD
:102C40007047C04638060020014B98757047C04653
:102C500038060020024B40001818008B7047C04611
:102C6000380600200122024B62331A707047C046BA
:102C70003806002010B5102901D8012A06D90023F2
:102C80000122C37082700270437014E04900511831
:102C90000231094A890089188B798C1DC979A2787B
:102CA00009021943E37801701B021343090A837078
:102CB0001B0A4170C37010BD00F0010008B5102858
:102CC0000CD801290AD8400008180230044B8000B3
:102CD000C018111C06300422FEF726FE08BDC046AF
:102CE00000F0010073B50024144D2B1FDA78997899
:102CF00012020A4319785B7801AE1B020B43201CB9
:102D000072800021321C3380FFF7D8FFEB78AA785D
:102D10001B0213436A78297812020A43201C0134EB
:102D200032800121321CE4B273800835FFF7C6FF00
:102D3000112CDAD1012003F057FB73BD507D000048
:102D400008B5034B6433188802F03BF808BDC04651
:102D500038060020034B2233588D13384342584124
:102D6000C0B27047B8050020014B2233188D704760
:102D7000B8050020014B2233988C7047B80500201D
:102D8000014B2233D88D7047B805002008B5074B9A
:102D900000209A1CD28F022A06D90833DB8F022B1F
:102DA00002D90330FFF768F908BDC0463806002095
:102DB00008B5FFF7FDFE002307499A008A18002195
:102DC00001339166112BF7D16422044B9A852E337F
:102DD0001970FFF7F7FE08BD38060020B80600207E
:102DE00010B5FFF7E5FE0023054C23866363A3635C
:102DF000E36300F03AFB0234E087FFF7E3FE10BD27
:102E0000B806002000230021034A183299520233E9
:102E10004A2BF8D17047C0463806002008B5FFF7A6
:102E2000C7FE0122044B9A852E331A70FFF7EAFF82
:102E3000FFF7C8FE08BDC046B806002038B5FFF74A
:102E4000EDFF054B1C1C1D8A238AAB4203D10A20CF
:102E500000F02EFBF8E738BD38060020002008B54A
:102E6000024B987301F090FC08BDC0463806002064
:102E700010B50120FFF7C0FE041C0020FFF7BCFEC8
:102E80000022844201D9201A82B2FA239B00934285
:102E90008041404210BD0000F7B50026B14220D06D
:102EA000041C01AF0D1C6846211C321CFFF7E2FE1A
:102EB000211C381C0122FFF7DDFE6B4678885C88F8
:102EC00019883B886D1A001B6843591A03F0F6FBFA
:102ED000001904D4044B984202DD181C00E0301C99
:102EE00086B2301CFEBDC046FFFF0000F7B50026CD
:102EF000B14220D0041C01AF0D1C6846211C321CBD
:102F0000FFF7B8FE211C381C0122FFF7B3FE6B4609
:102F100038881C8859887B886D1A001B6843591AA9
:102F200003F0CCFB001904D4044B984202DD181CBA
:102F300000E0301C86B2301CFEBDC046FFFF000022
:102F4000831EDBB201201B2B01D8014AD05C7047E5
:102F50005377000010B5132807D10C4B22335B8D3B
:102F6000133B58424341DBB20EE0041CFFF7E8FF7D
:102F70000123984208D19C40044B2233E05AC823D5
:102F80005B0083429B415B42181C10BDB8050020CA
:102F900070B51F2401250026201CFFF7DBFF002849
:102FA00000D02E4301346D00E4B2ADB2252CF3D134
:102FB000301C70BD38B5041C0D1CFFF7C1FF044B5D
:102FC00064002233021C69B2E05A00F097FC38BD5D
:102FD000B805002010B5FFF7EBFD054B5C6CFFF763
:102FE000F1FDFA21201CC90103F0D8FA80B210BD0E
:102FF000B806002010B5FFF7DBFD054B9C6CFFF712
:10300000E1FDFA216008C90103F0C8FA80B210BDE1
:10301000B806002010B50D4C0D4A211C2232D08D6F
:10302000636C4C31C31863640B78013BDBB2002B3B
:1030300001D00B7009E032230B70938C642158434C
:1030400003F0ACFAA36CC018A06410BDB806002051
:10305000B8050020044A938D002B03D0938D013BCB
:103060009BB293857047C046B806002010B50C4C43
:103070004000231C2233C35A8B4201D95B1A00E063
:10308000CB1A9BB2074A062B02D91318002202E082
:1030900013181A8B013222341A83215210BDC046F4
:1030A000B80500203806002070B50024FFF780FD29
:1030B0003222114B5C649C644C331A70FFF782FD22
:1030C0000E4D1C202235A98CFFF7D0FFEB890C4E4A
:1030D0007382FFF7A3FEFFF783FE211C1920B48241
:1030E000FFF7C4FF211C1B20FFF7C0FF1D20211C80
:1030F000FFF7BCFF70BDC046B8060020B805002031
:1031000038060020002208B5024B1A82FFF7CCFFD8
:1031100008BDC0463806002008B5FFF7F3FF08BD1C
:1031200038B50A4CA57BEDB2002D0DD101F02CFB7A
:10313000FFF7E8FF0123064AA37362341370FFF719
:103140007DFEFFF7B1FF257038BDC0463806002070
:10315000100000200A4A8300D31810B50949041C46
:10316000986E03F01BFA084B81B26200201CD1520A
:10317000FFF792FE011C201CFFF778FF10BDC04630
:1031800038060020581B0000B8050020F7B52D4E6A
:10319000B31CDC8F00F069F92B4B001B80B2984206
:1031A0004ED9FFF705FD348E284B776B5C43F36BEC
:1031B000B56B0193FFF706FDFFF712FE244E2409BD
:1031C000B38A281C0133B382211C03F0E7F9211CC8
:1031D000051C381C03F0E2F981B20020FFF75CFE09
:1031E000A9B2071C0120FFF757FE0025874201D92D
:1031F0003D1AADB2174B22331F8FBD4202D2B37DB1
:10320000002B03D11C20291CFFF730FFED1BA9B2B6
:103210001B20FFF72BFF0198211C03F0BFF981B29F
:103220000720FFF739FE718A7082411A89B249007E
:1032300089B21D20FFF71AFFA1B21E20FFF716FF6B
:10324000F7BDC046B806002030750000581B0000CE
:1032500038060020B8050020F7B5404E0024738CD6
:10326000B08C984201D21C1AA4B21220211CFFF784
:10327000FDFE0025281C6B00F3181F30C0B2998E8C
:103280000135FFF7F3FE062DF4D1354D2B1C6233CB
:103290001B78002B04D1FFF77BFE2B1C64331880B6
:1032A000002264352F88151C3B1C1341DB0706D513
:1032B000311C53002231CB18DB8FED18ADB2013237
:1032C000062AF1D11320291CFFF7D0FE002D0BD0C8
:1032D000631BAC4200D82B1B224A9BB2934207D8F7
:1032E00013232C1C019306E012232F1C019302E0F0
:1032F0001223002701931420211CFFF7B7FE16208C
:10330000391CFFF7B3FE6B4615209988FFF7AEFE18
:10331000FEF768F8051E01D0358D04E0FFF7AEF822
:10332000002800D0F58C201C0F49684303F036F9C3
:1033300081B21820FFF79AFE291C1720FFF796FE8E
:10334000FFF748FE011C1920FFF790FEFFF752FE21
:10335000011C1A20FFF78AFEF7BDC046B805002001
:1033600038060020B80B00001027000038B5FFF722
:103370001FFC1E4DAC8DA4B2FFF724FC002C34D1F1
:103380002B1C2E331C78E4B2002C2CD1184B9A7BCA
:10339000002A21D01A8A696B01321A829A6E083388
:1033A000120952186A635A6EA96B12095218DB6F20
:1033B000AA63EA6B1B099B18EB632B8E01332B86E8
:1033C000FFF7E4FE201C0134E4B2FFF7C3FE112C2A
:1033D000F8D1FFF741FF06E0064B1B78002B02D027
:1033E0000520FFF7B7FEFFF7E3FC38BDB806002065
:1033F000380600201000002008B5FFF7B7FF08BD11
:1034000072B6044B1868044B1B78002B00D162B6CF
:103410007047C04608070020CC08002008B5FDF71B
:10342000ADF9FDF727F902F083FFFFF7E5FF08BDCF
:10343000094A08B5136801331360084A1378013B41
:10344000DBB2002B01D0137005E0E1231370FFF70E
:10345000E1FDFDF7E7F908BD080700201100002095
:1034600008B5FFF7CDFF400808BD08B5FFF7F8FF26
:1034700080B208BD08B5FFF7C3FF80B208BD08B52C
:10348000FFF7EEFFFA21890003F088F808BD08B5C0
:10349000FFF7F5FF80B208BD38B5051CFFF7E0FF68
:1034A00084B2FFF7DDFF031B9BB2AB42F9D338BDFB
:1034B00038B5051CFFF7D4FF84B2FFF7AFFFFFF765
:1034C000CFFF031B9BB2AB42F7D338BD70B50024CE
:1034D0000123A340194209D0032663009E400568DA
:1034E000B543161C9E40331C2B4303600134082C4B
:1034F000EED170BD031C70B586B002AD08220C1C65
:10350000281C191C03F000FA2A78032A03D160B2A0
:103510006B68984744E0530607D56B6861B218881A
:103520003F231A4000F0EAF93AE0012A1BD0022AB0
:1035300036D1696804A8082203F0E6F9059E049DC7
:10354000318804228900691801A803F0DDF9019887
:1035500003F05EFA201A40B200F0AFF83178281C70
:1035600000F08FF81CE06968082204A803F0CCF989
:10357000059B04221988049B8900591801A803F0AF
:10358000C3F90198642103F009F8A11E80B249B281
:1035900000F09CF9302000F038F8302000F035F8C9
:1035A00006B070BD70B5041C0D1C002803DA2D2375
:1035B00044420B700135201C01F010FC00232D1833
:1035C0002B706E1E201C0A2103F05EF93031317021
:1035D000201C0A2103F072F8013E041EF2D1281CBF
:1035E00070BD08B5FDF752FA08BD002008B5011CF2
:1035F000FDF74CFA08BD08B500200121FDF746FA99
:1036000008BD08B5FDF739FA08BD08B50A2802D18A
:10361000FFF7F1FF01E0FDF7F9FA08BD70B5031CF3
:10362000041C0E1C051E0FD0EAB2E0B2131ADBB266
:10363000B34209DA121A28780132D3B201350028D0
:1036400002D0FFF7E2FFEFE758B270BD1FB501A946
:10365000FFF7A8FF01A80B21FFF7E0FF05B000BDB1
:1036600038B5031E0BD0051C041C631B0134621EFD
:103670001078DBB2002802D0FFF7C7FFF5E758B299
:1036800038BD07B589004118042201A803F03CF9B0
:103690000198FFF7E5FF0EBD70B5061C0C1C002558
:1036A0006BB2A34205DA301C0135FFF7AEFFEDB275
:1036B000F6E7E043C017204070BD08B5011C20208C
:1036C000FFF7EAFF08BD08B50120FFF7F6FF08BDC8
:1036D00008B51020FFF7F1FF08BD38B50C1C051C1C
:1036E00003F096F9201A40B2FFF7E7FF281C211CCF
:1036F000FFF794FF38BD1FB50C1C01A9FFF752FF5F
:1037000001A8211CFFF7E9FF1FBDF0B587B0151C0C
:103710000CAA1278071C0C1C0192002B1AD0FA205C
:1037200080007843291C02F0C9FF019B061C002B76
:1037300000D04642301C01F051FB0130C0B2A04223
:1037400008DC611E301C49B2FFF7D5FF6D20FDF784
:103750005DFA2FE0291C381C02F020FF019B03AE0C
:1037600080B2311C002B03D02D23337002AB591DC6
:10377000FFF718FF0190012D18D9621E831B934299
:1037800014DA381C291C02F08FFF642089B2491911
:10379000854201D9FA2080004843291C02F08EFF9F
:1037A0000199FFF7FFFE2E23019A1370301C211C94
:1037B000FFF793FF07B0F0BDF0B5144ED5007319B5
:1037C0005F6885B0041C381C0391029203F020F955
:1037D000039B191A49B2002915DD0223029A002021
:1037E0009A43082A05D123B2834202DA6442A4B282
:1037F0000130725B7519AB780090201CFFF785FFD4
:10380000381CFFF72DFF05B0F0BDC04670770000F3
:1038100038B50C1C051C03F0FBF8201A40B2FFF76A
:103820004CFF281CFFF71CFF38BD000010B5041C1E
:10383000C81E40B2FFF741FF0348002C00D00348E8
:10384000FFF70EFF10BDC0460074000004740000B6
:1038500008B53030C0B2FFF7D8FE08BD70B5161CF1
:10386000051C0C1C01F0CCFA211A49B2301CFFF7E0
:1038700013FF281CFFF7EAFE70BD000038B50C1CD2
:103880003C21051C02F08AFE0F4A031C80B29342C1
:1038900008D9611E49B22022FFF7E0FF6D20FDF735
:1038A000B5F910E0E11E202249B2FFF7D7FF3A2018
:1038B000FDF7ACF9281C3C2102F0F6FE302288B25C
:1038C0000221FFF7CBFF38BDE703000008B5FFF783
:1038D00012FF08BD08B50422FFF76EFF08BD08B54A
:1038E0000022FFF769FF08BD08B50122FFF764FF5A
:1038F00008BD08B50622FFF75FFF08BD08B50D2A11
:1039000003D1C0B2FFF792FF12E00C2A01D1094B9C
:1039100002E0052A0AD1084B984207D9073948B274
:10392000FFF7CBFE0548FFF79BFE01E0FFF744FFE2
:1039300008BDC046E7030000E7FD0000F873000083
:1039400008B50522FFF7DAFF08BD73B51F246B46E3
:1039500011250E26694600201E709D70DD701D71B8
:103960005D719D715C70DC71FDF7BCF86B4669465A
:1039700001201E709D70DD705C701C715C719C710B
:10398000DC71FDF7AFF86B46022069461E705C7073
:103990009C70DC701C715C719C71DC71FDF7A2F88D
:1039A00073BD000038B50A4B187800280ED0FFF719
:1039B0005FFA084D041E07D02B78002B01D1FEF7CB
:1039C0009BFE072002F0D0FB201C2C7038BDC046A7
:1039D000120000200C070020838B024A9B00D05865
:1039E0007047C046E877000008B503492422143127
:1039F00002F08AFF08BDC046E87700000B4B5A89E9
:103A00009989914200D29A81094A9989914200D9B3
:103A10009A81DA89198A914200D21A82FA22198A85
:103A20009200914200D91A827047C0460E070020CA
:103A30008813000008B5007800F096FE08BD00006D
:103A400030B52425094B0A498BB0C9182A1C01A896
:103A500002F05AFF074C01A92A1C201C02F054FF57
:103A6000201CFFF7E7FF0BB030BDC046BA030000D3
:103A700000F001000E07002010B5064C2422211C86
:103A80000548FDF751FF012002F0C4FC201CFFF7A0
:103A9000D1FF10BD0E070020BAF3010008B503489E
:103AA000FFF7A2FFFFF7E8FF08BDC0460E070020A2
:103AB000F7B50025061C2C1C1821134F61433B68E9
:103AC000022259186B460431981D02F01DFF6B4607
:103AD000DB88002B14D019B2BA88002905DA11B29C
:103AE00000290ADA802109024B401A4205D0002E33
:103AF00008D0013E0135F6B2EDB20134E4B2DBE7A5
:103B0000281C00E0201CFEBD34070020F7B5071C70
:103B10001824FFF7CDFF144D44432B6804221919D4
:103B200001A802F0F1FE0198FFF79AFD061C01F0D2
:103B3000BBFBFF23002801D00C4B1B785BB2BB42C0
:103B400011D00F212B68891B1B195E7AC9B2002E78
:103B500004D0891B48B2FFF7B0FD311C286800195A
:103B60000830FFF7C7FCF7BD3407002088080020A5
:103B700013B5FFF79DFF182358430A4B04221C6816
:103B80002418211C68460C3102F0BEFE237A0099ED
:103B9000013B012B04D86846082202F0B5FE0199CA
:103BA000081C16BD3407002013B5FFF781FF6B46D4
:103BB0009C1D18235843054B02221968091804312B
:103BC000201C02F0A1FE208816BDC046340700204C
:103BD000F0B585B00C1C051CFFF7CAFF061C281C9D
:103BE000FFF766FF1823264F58433B6802AD1918AC
:103BF0000822023C1031281C02F086FE624262411B
:103C0000012354421C430022AB5E1E4A934206D15C
:103C1000AA88EB88301C211C01F01DF928E01A4A03
:103C2000934203D16B68201C984721E0174A9342C6
:103C300010D13388EA88E418231C11B224B28C42D4
:103C400000DD131C3380AA881BB211B28B420FDA3D
:103C500032800DE00E4A934202D1FDF70DFF28801D
:103C60002988AA88EB88301C0091211C01F0CCF82F
:103C7000BB68002B01D0301C984705B0F0BDC04692
:103C800034070020FF7F0000FE7F0000FC7F000063
:103C9000FD7F000008B5044B9880FF20FFF708FF68
:103CA000024B187008BDC0463407002046050020AE
:103CB00008B5094B186000209960FEF7D1FA074A51
:103CC000074B08481A60084A084B1A60FF22084B45
:103CD0001A70FFF7DFFF08BD340700200D3B00001E
:103CE0004C050020FF7F0000D13B00005005002064
:103CF0008808002008B5FDF715FC014B186808BDC1
:103D00000800002070B50401640F0BD0C601F60E48
:103D1000B4400E4D83009B0F5B199B001D68A543AB
:103D200029431960810AC9B200290DD00303084C48
:103D30009B0F1B19CC438005C00E8440201C9B00A8
:103D40001D68284002431A6070BDC04684000014FC
:103D500086000014024A1368184310607047C0467A
:103D600000020050074A830F9B18011C1F221140BC
:103D70001E3A8A40101C10B59B001C682043186036
:103D800010BDC04681000014064B074AD2680240AD
:103D9000824204D0013B002BF7D1181C00E0012027
:103DA0007047C046814F120000020050F7B504254D
:103DB000104C061CE3681020019323680F1C2B4352
:103DC0002360FFF7E1FF07220F21236913432361DB
:103DD000A3698B431F43A761236993431E43266155
:103DE000FDF7A0FB019BDB0602D42368AB432360F5
:103DF000F7BDC046000200508023F0B5574C5B026F
:103E0000236289B0071C0E1C2368002808D10120FA
:103E100003432360FFF7B8FF02250597504B09E0E5
:103E200004252B4323601020FFF7AEFF80231B03E4
:103E300005934C4B03934C4BF2184C4B9A420FD9C1
:103E40004B4BF2184B4B9A4202D87600012308E004
:103E5000494BF218494B9A4253D8B600032300E06D
:103E600000230193012300275B42029704930398E8
:103E7000291C02F093FB424BC218424B9A4226D8AF
:103E80004300F21A9446022200923F4959180A1E32
:103E90003E498A420CD86146B34200D9991B049A24
:103EA000914205D22F1C00290ED0009A0491029253
:103EB000009A3749013200926246121A9446009ADB
:103EC0001B188A42E1D102E0009B04910293013564
:103ED000222DCCD1019B059A9B031343029A042007
:103EE000023A1343BA1E520213432362FFF74CFFF8
:103EF000019B0398591C794302F050FB029B5843E5
:103F00002AE0002F01D1234B00E0234B2362042041
:103F100007ADFFF739FF0422281C204902F0F4FC0A
:103F2000A022236AD2020020134215D11A0301D421
:103F30000B4800E00B489A030ED4DA05D20D02328A
:103F4000800850431A04920F9B04A95CDB0E0233D5
:103F5000594302F023FB800009B0F0BD000200507D
:103F6000001BB70000805101FF1E0AFAFFE0F505B3
:103F70007F0F05FD7FF0FA02C08782FE40787D0149
:103F8000FF95E7FFBE77CC00001F0AFA00E1F505B8
:103F9000020200002EC200006FD608002078000048
:103FA00070B51E4B1E4C061EE5689E4204D81D4B84
:103FB000984202D81C4E00E01E1C042223681020E8
:103FC00013432360FFF7E0FE0722236913432361B5
:103FD000A36908329343A361E368DB0707D5102385
:103FE000311C00201D40FFF707FF061C09E0802060
:103FF000311C0003FFF700FF094B061CDD6810238E
:104000001D4002200021FFF7D1FE002D03D1042224
:10401000236893432360301C70BDC04680F0FA02D1
:10402000000200503F787D0140787D01072208B5ED
:10403000054B1A70054B053A1A7002F08DF80322F1
:10404000034B1A7008BDC04688080020890800206C
:1040500040070020FF2208B5024B1A7002F076F8E4
:1040600008BDC04688080020F7B51220FEF772FF91
:104070003A4D00266B782A781B0213430A3B012B2A
:1040800002D901367040C6B2FEF75AFE344B019099
:104090001C78002C0DD0041C2B79624254411D1A4F
:1040A0006A1E9541E4B2EDB2012B03D1002C01D080
:1040B0000024251CFEF74EFE002811D01220FEF72A
:1040C00093FD071C1320FEF78FFD874201D9381A94
:1040D00000E0C01BFA2380B25B00984200D90126A1
:1040E000204B0722002D00D003221A70002C02D092
:1040F0001A78023A1A70002E02D01A78013A1A7011
:10410000002D03D1002C01D1002E05D0012002F09A
:104110002BF8002C05D102E002F018F805E0002D84
:1041200003D0019B0125002B00D10025FDF79EFC4B
:104130000D4C002800D12070002D08D1002E06D192
:10414000FDF794FC082802D12378013323702378EB
:10415000023B584243410220C01AFEBD41070020E5
:10416000C90400208808002040070020054B1A7869
:104170005B781B02134305225343C018024B4000D7
:10418000185A7047410700203078000070B5061CAF
:104190000C4D6C79287924020443301CFFF7E6FFAC
:1041A000022E0BD16B782A781B021343022B05D108
:1041B000062C03D99620013CA4B2C0004443A0B20F
:1041C00070BDC0464107002070B5061C0D4C6579D6
:1041D00020792D020543301CFFF7C8FF012E02D1C4
:1041E000A37AE07A08E0022E02D1237B607B03E011
:1041F000032E03D1A37FE07F00021843684380B2FF
:1042000070BDC04641070020044B1A785B781B0242
:104210001343034A7832D05C7047C0464107002000
:104220003078000038B50C490C4DC8788A78000207
:10423000031C487F13430A7F000210435843642144
:1042400002F0ACF9041EAC4203D8FFF7DDFF0528ED
:1042500000D12C1CA0B238BD41070020E8FD0000B1
:1042600007494B1CDA7F8B1CD87F0002031C48795E
:1042700013430A7900021043584300B27047C04606
:104280004107002010B50220FFF780FF054C011CFC
:10429000608AFCF7BBFEA289031C904200D9131C64
:1042A00098B210BD0E07002010B50220FFF76EFF78
:1042B000054C011CA08AFCF7A9FE228A031C90422F
:1042C00000D9131C98B210BD0E070020012008B5BC
:1042D000074B1A785B781B0213430A3B834206D9CB
:1042E000FFF744FF011C034802F0E8F980B208BD63
:1042F000410700207869000038B5454CE378A27882
:104300001B021343632B03D86423A3700023E370C1
:10431000E378A2781B0213433E4A934204D9182340
:104320005B42A3701533E370E37CA27C1B02134352
:10433000FA229200934204D918235B42A3741B33E0
:10434000E374FFF7C3FF637922791B0213438342AF
:1043500002D92071000A6071637922791B0213432C
:1043600002D1012263712271FFF78CFFE379A279F8
:104370001B021343834202D9A071000AE071E37962
:10438000A2791B021343E27BA17B12020A439A42E9
:1043900002D9A3731B0AE373FFF786FF637A227ABD
:1043A0001B021343834202D92072000A6072627AB0
:1043B000237A12021A43637C217C1B020B43934233
:1043C00002D9130A227463741349E079A5794B89E1
:1043D00000022843984202D2180AA371E071E07BE0
:1043E000A57B00022843984202D2A3731B0AE37301
:1043F000CB899A4202D21A0A23726272627C217CB1
:1044000012020A439A4202D223741B0A637438BD13
:1044100041070020E8FD00000E07002010B5282409
:10442000604308498AB00918221C9831684602F096
:104430006BFA6946221C044802F066FAFFF75CFF3B
:104440000AB010BD00F001004107002028225043AF
:1044500008B5054B9830C0180449FDF765FA0120EE
:1044600001F0CCFF08BDC04600F00100410700206C
:1044700010B5FFF741FF064C0A21E079A37900024D
:10448000184302F08BF880B2A073000AE07310BDED
:104490004107002010B5FFF72FFF064C0A21607A74
:1044A000237A0002184302F079F880B22074000ADF
:1044B000607410BD4107002010B5FFF71DFF0F49C4
:1044C000CB788A781B0213431A0ACA714A78087893
:1044D00012028B7102430C1C032A03D19B088B71BF
:1044E0001B0ACB71FFF7C4FFE378A2781B021343CA
:1044F00023721B0A6372FFF7CDFF10BD4107002036
:1045000038B50120FFF732FE2D4CA072000AE07290
:104510000220FFF72BFE6578237820732D02000A16
:1045200060731D4319D1302318225B42A3703733C7
:10453000E370043B2371E3746D33A375593BE3755A
:1045400007335242A3765A336571A2742575657597
:1045500025766576E57623776577FFF755FE0028A3
:104560001ED101230122A377E077E1185242A31C58
:104570000538022D01D00F204042C8770321DA7799
:104580000023E21CD177221DD3776131621DD177E0
:10459000A21DD3775F39E21D0834D177E3770BE0B2
:1045A0000822631CDA770022A31C0320DA77FFF7C6
:1045B000DDFDA077000AE077FFF77EFF38BDC0463B
:1045C0004107002010B50024074B1C705C70FFF7FA
:1045D00097FFE0B20134FFF739FF142CF9D1012025
:1045E00001F00CFF10BDC0464107002038B5051C86
:1045F000FFF714FF1D4C637822781B02134303D08E
:10460000FBF70CFEFFF75FF8637822781B02134379
:104610000A2B0AD00B2B0AD0002B15D1681CFFF7F0
:1046200015F83A20FEF7F1FF1EE0092009E0E079D5
:10463000A379000218430521FFF751F9FFF743F86A
:104640000420FBF7B7FD0FE0E078A37800021843E1
:104650000721FFF775F92F20FEF7D7FF607923793F
:1046600000021843FEF7F2FF38BDC04641070020A4
:10467000012208B5024B9A60FEF7DAFE08BDC0467B
:104680000000014010B5144C201CFFF76BFB80218B
:10469000201C89000022FFF735FB8021FA220F4CF5
:1046A0000905201CD200FCF72BFC80222368920510
:1046B000134323608023C221FF20094A5B0013605B
:1046C0008900535883437F38034353508022236823
:1046D000D2051343236010BD0200805E000001403C
:1046E00000E100E00D4B0E4A1868C0B2434243415E
:1046F0001068C0B24242504140001843094B1B6849
:10470000DBB25A4253419B001843074B1B68DBB294
:104710005A425341DB0018437047C0465042005094
:1047200054420050584200505C4200507047000014
:1047300008B5FCF753FA102002210022FCF7E6F935
:1047400001F038F8FDF71EFA014800F057FA08BDED
:104750007869000001231840024B1860BFF34F8FA7
:104760007047C0468042005008B5FA236421DB013F
:104770004343081A4843C01801F010FF011C3020C1
:10478000FDF77CFA08BD00000123074A434010B53D
:104790001360BFF34F8F002805D1041C00F056FAB8
:1047A000201C00F0C3FA10BD904200500123011CF0
:1047B000114A19401160BFF34F8F104942081A4047
:1047C0000A60BFF34F8F0E4982081A400A60BFF398
:1047D0004F8F0C49C2081A400A60BFF34F8F0A4935
:1047E00002091A400A60BFF34F8F084A400903408C
:1047F0001360BFF34F8F70470042005004420050D7
:1048000008420050104200500C4200501442005028
:1048100010B50020FFF7CAFF0020FFF7B5FF002307
:10482000264C2360BFF34F8F2548032100F006FD7F
:104830002448032100F002FD2348032100F0FEFC80
:104840002248032100F0FAFC2148032100F0F6FC85
:104850002048032100F0F2FC1F48032100F0EEFC89
:104860001E48032100F0EAFC1D48032100F0E6FC8D
:104870001C48032100F0E2FC1B48032100F0DEFC91
:10488000201C0121194C00F0D9FC1948032100F02B
:10489000D5FC201C032100F0D1FC1648012100F0BA
:1048A000CDFC1548032100F0C9FC201C032100F0B9
:1048B000C5FC1248012100F0C1FC10BD804200502F
:1048C0000042005004420050084200501042005084
:1048D0000C420050144200505042005054420050CC
:1048E000584200505C4200509042005044420050F8
:1048F00088420050944200504042005048420050CC
:1049000010B50024064B1C755C75FBF789FD054846
:10491000FDF756FDFBF796FD034B1C7010BDC0461E
:1049200041070020E4780000F0080020F8B5114CA1
:10493000071C1149201CFDF7ACFE00261220FEF7D3
:1049400009FB051E0FD0FEF7FBF9431E9841B84244
:104950000ED0002E07D10949201C002F00D1084895
:10496000FDF797FE0126FDF791F80128E6D1002515
:10497000281CF8BDD4700000C0700000B2700000A8
:10498000C9700000F7B50F1C111C061C0192FEF740
:10499000ADFA391C051C301CFEF7A8FA019B041C5B
:1049A000F9184908301CFEF7A1FA0123002C19D090
:1049B0000D4ADB18944215D00133002D12D001337B
:1049C00095420FD00133A5420CD9021C0A3A01339B
:1049D000A24207DD0A30E90FC217A8424A4101335B
:1049E00052421340181CFEBDFFFF000010B5084CDA
:1049F0000F206189A289FFF7C5FF002802D00A3085
:104A0000C0B204E06189A2890220FFF7BBFF10BD9C
:104A10000E07002010B5084C1020E189228AFFF70C
:104A2000B1FF002802D00A30C0B204E0E189228A36
:104A30000320FFF7A7FF10BD0E07002070B501F09F
:104A40008DFD041E1FD0FA21002089000F4AFFF7B8
:104A500099FF061E05D00E48311CFDF7CDFE00243F
:104A600011E0FFF7C3FF051E05D00A48291CFDF71A
:104A7000C3FE341C07E0FFF7CDFF011E03D006483C
:104A8000FDF7BAFE2C1C201C70BDC04678690000E2
:104A9000AA700000A17000009570000008B5FFF733
:104AA000CDFF08BD30B5064C0648256A28400243B4
:104AB0000A43FF212262626A8A431343636230BD64
:104AC00000000E40F3FBFFFFCB0704D50220094A8C
:104AD000136A034313620220014203D0054A936A1A
:104AE000034393624B0704D50221024AD36A0B4366
:104AF000D362704700000E407047704708B5054A02
:104B0000054B1A60054A5A60054A9A6000F00EFB90
:104B100008BDC0466D5100001400002099510000EE
:104B2000B551000008B500F0DBFA08BD72B6034BC2
:104B300018780130C0B218707047C046CC08002009
:104B4000044A1378013BDBB21370002B00D162B62C
:104B50007047C046CC08002010B5FFF7E7FF034BB5
:104B60001C68FFF7EDFF2412A0B210BD6C080020F6
:104B700038B5041C0D1CFFF7D9FF0022064B9A80A4
:104B8000A54200D9054A1A601A6812021A60012269
:104B90009A71FFF7D5FF38BD6C080020F87F000040
:104BA000114B10B5041E9C420DD8104B98420BD8E7
:104BB0001420FDF7AFF800220D4B1A60BFF34F8FA2
:104BC0001320211C0CE01C1C1320FDF7A3F801226C
:104BD000084B1A60BFF34F8F1420074BE11889B2BE
:104BE000FDF74CF810BDC046F4BF0000F87F000090
:104BF00044420050404200500880FFFF0A4B10B56D
:104C0000011C984200D9191C89B20020FEF76EF9E8
:104C1000064B041C984200D91C1CFFF787FF044B6D
:104C20001C81FFF78DFF10BD78690000A8610000AE
:104C30006C08002010B5041CFFF778FF024B9C8025
:104C4000FFF77EFF10BDC0466C08002038B5051E7A
:104C500004D00122164B1A60BFF34F8F0024FFF7D8
:104C600065FF144B13209C71FDF754F8124B1C6028
:104C7000BFF34F8F1420FDF74DF8104B1C60BFF3AE
:104C80004F8FFFF75DFF01230D4A6B401360BFF3A9
:104C90004F8FA5420AD00620FDF7A6FF051C201C59
:104CA000FDF7A2FF011C281CFFF762FF38BDC046BC
:104CB000944200506C080020404200504442005092
:104CC0004842005038B5164DAB792C1C002B26D02D
:104CD0000020FDF791FF2B89984208D30020FFF7B1
:104CE000B5FF00230122AB710E4B1A7017E00220B2
:104CF000FDF782FFAB882A68181A80001018286018
:104D00002B68002B01DA00232B602268064B9A42A5
:104D100000D923602068001280B2FFF741FF38BD40
:104D20006C080020B204002000F4BF0010B5041E7F
:104D300002D00020FFF78AFF01235C40024B1C6079
:104D4000BFF34F8F10BDC0469442005008B5011C00
:104D50001420FCF793FF08BD08B5804708BD07B5D0
:104D6000011C042201A801F0CFFD0198FFF7F4FF18
:104D700007BD70B5041C05200E1C151CFDF734FF83
:104D8000031EB34203D200230120237004E000205D
:104D9000AB4201D90130207070BD01230138C0B28F
:104DA000FF2803D00A2253439BB2F7E7181C704731
:104DB0000023984203D00133002800DCFE3358B2B0
:104DC0007047011C10220020CB0701D5431CD8B22C
:104DD000013AD2B24908002AF6D1704710B500282E
:104DE00002DA4042012401E044424441002805D057
:104DF00001340A21E4B201F061FCF7E7201C10BD88
:104E000008B5FFF7EBFF08BDF7B5019308AB1C88A9
:104E10000588061C0F1C281C211C009201F044FC74
:104E200089B2002904D0002F0BDD641AA4B201E07E
:104E3000002F07DD019B01991B1B64199D4207DBB5
:104E400007E00C1C009B00991B199D4201DD2C1BE7
:104E5000A1B23180F7BDF7B5041C00881D1C0F1CE2
:104E6000161CFFF7BBFF0123984204D90238C0B2D9
:104E7000FFF793FF031C0093391C321C2B1C201CD2
:104E8000FFF7C2FFF7BD000008B50022014BFFF796
:104E9000E2FF08BDFFFF000008B5FCF7F7FD0028A2
:104EA000FBD1FCF7F3FD0028FBD008BDF0B587B0BF
:104EB000029100211C1C0392FEF7FAFE002C05D182
:104EC000384B1B8C002B01D1374800E03748FEF7E8
:104ED000E1FE0120FDF754FA061E60DBC0B2FEF7CA
:104EE00063FE6B4601901B799A0753D5029B9C5D2C
:104EF000201CFEF72FF80028EBD00025FDF79EFFC1
:104F00002B4B1D702B4B1D70FDF778FAA8423BD040
:104F1000039B03209E5D01F027F9201CFDF764FE32
:104F2000071CFBF79BFA301CFDF758FE05AC6780A9
:104F3000214F20803978301C221CFDF7BFFE019BD9
:104F40001B061ED501261A4B1E70FDF777FFFBF7D7
:104F500085FA281CFDF742FE2080301CFDF73EFE3E
:104F60002388181A20801320FDF73EFE39786080D0
:104F7000221C281CFDF7A2FE3978301C221CFDF7EC
:104F80009DFE012001F030FA0123094A1370094AFD
:104F900013709EE75B079CD5FDF730FA99E707B0E1
:104FA000F0BDC0460E070020FB7F0000FF7F000021
:104FB00046060020100000207808002010B50124CB
:104FC0000B4B1C8001F06EF8201CFEF7A9F8201C8A
:104FD000FFF7ACFC002807D0064A0748111C002345
:104FE00008310F32FFF762FFFDF738FF10BDC046F2
:104FF000780800201C7A00001C79000038B50125D3
:105000000A4B1D8001F04EF80020FEF789F8084A8F
:105010000023101C074C78321830111C2370FFF746
:1050200045FF2570FDF71AFF38BDC04678080020FF
:105030001C7A00001200002038B5002401250B4B1B
:105040001C80FBF7FFF90A4B201C1D755C75FEF7F1
:1050500067F8084A08485C322B1C7C30111CFFF7AB
:1050600025FFFDF7FBFEFBF7DBF938BD78080020D4
:10507000410700209C7A00001C7A0000002008B53F
:10508000074B1880FEF74CF8064A0748403260305C
:10509000111C0123FFF70AFFFDF7E0FE08BDC04623
:1050A000780800201C7B00009C7A000008B50248AC
:1050B000C82100F0C3F808BD3C420050054A08B5BD
:1050C0001168054B05480B401360012100F0B6F84C
:1050D00008BDC046340000507F7FFFFF3C420050B7
:1050E00010B50D4C201CFEF73DFE8021201C8902CE
:1050F0000022FEF707FEC221084B89005858084AD3
:1051000002405A508022D2001A60064A064B1A60AA
:10511000FFF7CCFF10BDC0460400005F00E100E0D7
:10512000FFFF00FF3C4200507C08002038B5051C02
:10513000FFF7C4FF80210B4C2A1C201C0905FBF73C
:10514000DFFE802201212368920513432360064B72
:105150001A68116000229A8080222368D2051343C6
:10516000236038BD000011407C08002010B5084ABB
:10517000D3880133DBB299B21489BFF35F8FA142A8
:10518000FAD0044C2468E054BFF35F8FD18010BD87
:105190007C08002020000020054B1989BFF35F8F99
:1051A000DA889142F8D19B88002BF5D17047C04630
:1051B0007C08002008B5064B064A19680A401A60A8
:1051C0001968054A0A401A60FFF770FF08BDC0461B
:1051D00000001140FFFFFFBFFFFFFFDF0A490B89FF
:1051E000CA889BB2BFF35F8F93420CD08020074ADE
:1051F00001331268DBB2D25C8000520012188A8040
:10520000BFF35F8F0B8170477C08002020000020D7
:10521000084A08B59388002B06D001211068194070
:105220005B100160938001E0FFF7D8FF0122024B81
:105230009A6008BD7C08002000001140F8B50724E2
:105240004509174B2540ED1880080A1CAD010440A4
:105250000126C82905D1371CA740281C391C00226B
:1052600006E0C92912D1371CA740281C391CC73AAF
:105270000834A640FEF72AF96B683A041343094A3A
:105280006B601368B3431F43176008E0A640281CF7
:10529000311CFEF71BF96B683404A3436B60F8BD47
:1052A0000001400134000050054B00201A787F2A8D
:1052B00004D8587801234008013018407047C04690
:1052C00088080020074B00201A787F2A08D85A78CF
:1052D000531ED8B243085208981A431E9841C0B2D0
:1052E0007047C04688080020034B5B8B002B01D120
:1052F000024800E0024870470E070020FD7F0000D2
:10530000FF7F000008B5FFF7EFFFFEF7C3FCFEF7D5
:1053100075FB08BD10B51A488AB01A49FEF7C8FCDB
:10532000FFF7E2FFFEF7B6FC0020FDF729F80028A2
:1053300022DBC0B2FEF71CFC134C002806D1201C57
:10534000FEF752FB032000F00FFFE9E7211C2422A7
:1053500001A801F0D9FAFDF751F8002805D1201C69
:1053600001A9242201F0D0FA02E0032000F0FCFEA3
:10537000201CFEF75FFBD3E7FEF77EFB0AB010BDF3
:10538000607B0000055300000E07002008B541882F
:1053900000290AD00023C05EC317C0185840FA2362
:1053A0009B00584301F0FAF881B2081C08BD30B5E3
:1053B00003AC24780D1C002C07D0914200D9151C99
:1053C000ADB20C1C914208D206E0914200D2151CED
:1053D000ADB20C1C914200D9141C0021A2B2521B88
:1053E000C5800580418081804381028130BD0000FD
:1053F00070B50B4C0289C6884589231C002A0CD045
:10540000281C891B484311B201F058F9231CA04203
:1054100003DC0023984200DB83B2181C70BDC04639
:10542000FFFF0000F8B54388D41A9A4200D89C1AAE
:105430008588A4B26D08AC4219D905889A4204D96E
:10544000D31A4D1B9CB2ADB203E06D1A9B1AADB2DC
:105450009CB2061C28B2FFF7ABFC071C0823F05EC9
:10546000FFF7A6FC874202D1B48035817481F8BD74
:1054700038B5041C0D1C0821435E61895343181C78
:1054800001F01CF9854202DA0023E38001E02D1AC5
:10549000E58038BD70B5061C0D1C141CFFF7C2FF5B
:1054A000301C291C221CFFF7E3FF70BD70B51C4B9C
:1054B00018781C4BC00819784908013101F0F4F83C
:1054C000CCB2FEF792F8601C0121FEF7FFF9002034
:1054D000FEF79BF8144EE300985906216500FEF78D
:1054E000CDF90135FEF7EFF80220FEF78EF8A400A3
:1054F000AB009859062134196D00FEF7BFF97619F3
:10550000FEF7E6F8FEF777F8208D0821FEF718FA87
:10551000308D0821FEF714FAFEF7DAF870BDC046A8
:1055200089080020CC0400208C08002000230021E2
:10553000044A58008150283299520233142BF6D174
:105540007047C0468C08002038B5074B1C78FBF725
:10555000BFF8064DA30058511920FDF745FB640024
:105560002C19208538BDC046CC0400208C080020B2
:1055700010B5134A1348538814889BB2BFF35F8F4A
:10558000111CA34217D18369DB0017D480220E4B74
:105590005201DA6712E00D4C01332468DAB2A45CE0
:1055A00093B2084A1460BFF35F8F4B800A88BFF341
:1055B0005F8F934202D082691202ECD510BDC046C3
:1055C000C80800200000054004E100E0240000209D
:1055D000002238B50C4B1A700C4C6568012D06D0B2
:1055E00059236360433B636072336360F4E7281CB4
:1055F000FEF7B0FB281CFEF7C7FB0548FEF7D0FC02
:105600000023636038BDC046CC080020FC00005079
:1056100080F0FA02044A1378013BDBB21370002BCE
:1056200000D162B67047C046CC080020FF210A4A6C
:105630000138536AC0B28B43191C822803D8074B28
:105640008000C35800E0064B0120DB065B0F98404A
:10565000031C0B435362704700000E40D47D0000D2
:1056600098420050C0B20123011C094A1940116040
:10567000BFF34F8F074942081A400A60BFF34F8FAC
:1056800080081840044B1860BFF34F8F7047C04626
:10569000184200501C4200502042005008B500281B
:1056A00017DB0C4BC0B2187072B60B4A022013788D
:1056B00001331370FFF7D6FF084A094B11680B40FE
:1056C0001360FFF7A7FF8021064AC90513680B4343
:1056D000136008BDD0080020CC0800203400005022
:1056E000DFDFFFFF20000140012208B50A4B9A606E
:1056F00072B60A4A137801331370094B187840B216
:10570000FFF7B0FF074A084B11680B4020210B43FD
:105710001360FFF77FFF08BD20000140CC08002088
:10572000D008002034000050FFDFFFFF14210022CA
:1057300008B5084B0C205B780133DBB2994252412B
:1057400052421340044A9B00D3181856FFF7A6FF95
:1057500008BDC046D0080020D47F000010B5FFF778
:10576000E5FF104A104953789B00CB18997B5C7B6E
:1057700091700021201CD1705160FFF757FF0B4A38
:105780000B4B516A402C04D9A41124020B40234333
:1057900000E00B4080215362136A09010B4313623E
:1057A00010BDC046D0080020D47F000000000E408D
:1057B000FFFCFFFFF8B500263D480321FFF73EFD43
:1057C0003C480321FFF73AFD3B480321FFF736FD34
:1057D0003A48C821FFF732FD394C3A48C821FFF753
:1057E0002DFD3948C821FFF729FD201CC921FFF7ED
:1057F00025FD2660BFF34F8FA0220127D205D36974
:10580000324C3B43D361201CFEF7ACFA8021201CB4
:105810002F4C321C8901FEF775FA311C201C2D4AD1
:10582000FBF76EFB802223689205134323608023DD
:10583000C222294D9B0092002B60AB582749284C6F
:105840000B40802109020B43AB50201CFEF78AFA63
:10585000FEF750FA234900F0A1FE421E201C224C04
:1058600012040821FEF74EFA236A311C3B432362DF
:10587000201C04222023FFF715F9236A391CBB40A2
:10588000FB40201C23622763FFF71EF98023C722F9
:105890009B052B609200AB5810490B4080210902F8
:1058A0000B43AB50114B5E70FFF758FFF8BDC0467D
:1058B000184200501C420050204200503842005014
:1058C00034420050284200502C4200500300C05E79
:1058D0002000014050C3000000E100E0FF00FFFF96
:1058E0001CFE235600093D0000000E40D008002099
:1058F00038B5FCF7D1FD104CE083FBF781FD0F4B71
:1059000020841B7A002B16D0FCF7C6FD46250C4CD4
:105910006843E36BC018E063FBF772FD4543236CFB
:10592000ED18084B25641B88012B02D1A3689B0846
:10593000A360FDF78FFB38BD24060020D0080020AF
:10594000A0060020E406002010B5164B1A68191CAA
:105950001307FAD480230A685B001A4002D0124B66
:105960001B68F7E71421114C63780133DBB29942CD
:10597000524152421340637007D1FFF7B9FF0C4BFD
:105980001B885A1E9341DBB22372FFF7E7FE637850
:10599000084A9B00D318DB7B002B01D0FFF792F95C
:1059A00010BDC04630000E4000000E40D008002060
:1059B000E4060020D47F000010B5194B194C1B6879
:1059C000DB0529D52268184B92B2DA60DA78191C07
:1059D000012A03D9DA68586882185A60DA780132E5
:1059E000D2B2DA70472AE8D9226A104B1048134025
:1059F00023628A78CB6852001B019BB213520B7A48
:105A0000002B07D04B688A780A49920050581B0136
:105A1000C3185350FFF798FF0123236310BDC046FE
:105A200030000E4000000E40D0080020FFF7FFFFBE
:105A300024060020A0060020FEE70000002208B592
:105A40000A4B0B49D3188B4204D20A4989580432B5
:105A50001960F5E7084B094A934202D2002204C3B9
:105A6000F9E7FBF7ABFDFAF75BFB08BD0000002090
:105A700060040020B480000060040020FC080020C6
:105A800008B51920FDF7B0F80821FDF759FF08BD4A
:105A900010B5FCF7F3FC4324002810D1FBF7A2FC5F
:105AA000002806D0FCF7EAFC4523444244411C1B75
:105AB00005E0FCF7F7F94E24002800D00C3C00F07C
:105AC0007BF9002800D05724201CFDF79EFDFAF733
:105AD000E7FD0721FDF7D2FEFDF7F5FD10BD08B586
